:100000000C94E0040C9408050C9408050C94080565
:100010000C9408050C9408050C9408050C9408052C
:100020000C9408050C9408050C9408050C9408051C
:100030000C9408050C9408050C9408050C9408050C
:100040000C9466170C9408050C9439160C9413162E
:100050000C9408050C9408050C9408050C940805EC
:100060000C9408050C940805C006C206D606EA06DC
:10007000F9060C071C07B4B41E1E1E1E1E1E1E1EF3
:100080001E1E1E3C1E1E1E1E1E1E1E1E1E1E1E3C54
:1000900078F0B4B41E1E1E3C1E1E1E1E1E1E1E3CEC
:1000A0001E1E1E3C1E1E1E1E1E1E1E3C78F0B4B4DC
:1000B0001E3C1E1E1E1E1E1E1E1E1E3C1E3C1E1E06
:1000C0001E1E1E1E1E1E1E3C78F0B4B41E1E1E1EDA
:1000D0001E1E1E1E1E3C1E1E1E1E1E1E1E1E1E1E22
:1000E0001E3C1E1E78F0B4B41E1E1E3C1E1E1E1E9C
:1000F0001E3C1E1E1E1E1E3C1E1E1E1E1E3C1E1EC6
:1001000078F0B4B41E3C1E1E1E1E1E1E1E3C1E1E7B
:100110001E3C1E1E1E1E1E1E1E3C1E1E78F0B4B46B
:100120001E1E1E1E1E1E1E3C1E1E1E1E1E1E1E1ED1
:100130001E1E1E3C1E1E1E1E78F0B4B41E1E1E3C4B
:100140001E1E1E3C1E1E1E1E1E1E1E3C1E1E1E3C75
:100150001E1E1E1E78F0B4B41E3C1E1E1E1E1E3C2B
:100160001E1E1E1E1E3C1E1E1E1E1E3C1E1E1E1E73
:1001700078F0B4B41E1E1E1E1E3C1E1E1E1E1E1E29
:100180001E1E1E1E1E3C1E1E1E1E1E1E78F0B4B419
:100190001E1E1E3C1E3C1E1E1E1E1E1E1E1E1E3C25
:1001A0001E3C1E1E1E1E1E1E78F0B4B41E3C1E1EDB
:1001B0001E3C1E1E1E1E1E1E1E3C1E1E1E3C1E1E05
:1001C0001E1E1E1E78F01112131415160A0B0C0DAC
:1001D0000E0F00010203040501060A00FE070136A6
:1001E000026820FFFE08FE07FE0A006022176780F3
:1001F000808080800080163363A0A0A002576750E3
:1002000050F850F850500257672070A070287020A6
:1002100002576748A8502050A89002576740A0A0F6
:1002200040A8906826136380808012376720408042
:100230008080402012376780402020204080035576
:10024000658850F850880355652020F82020113328
:1002500063604080055161F811336340E04002570C
:1002600067080810204080800257672050888888DF
:1002700050200257672060A0202020F802576770A6
:100280008808304080F8025767F8081030088870F6
:1002900002576710305090F81010025767F880B07E
:1002A000C8088870025767304080B0C8887002570D
:1002B00067F80810102040400257677088887088DF
:1002C0008870025767708898680810601137674017
:1002D000E0400040E04011376740E040006040806F
:1002E00012476710204080402010045363F800F844
:1002F00012476780402010204080025767708810A6
:1003000020200020025767708898A8B0807002579C
:100310006720508888F88888025767F048487048F6
:1003200048F002576770888080808870025767F0B5
:100330004848484848F0025767F88080F08080F8C5
:10034000025767F88080F08080800257677088804D
:1003500080988870025767888888F888888812375C
:1003600067E04040404040E00257673810101010EE
:1003700090600257678890A0C0A09088025767805D
:100380008080808080F80257678888D8A88888880D
:100390000257678888C8A898888802576770888835
:1003A00088888870025767F08888F08080800158BC
:1003B000687088888888A87008025767F08888F075
:1003C000A09088025767708880700888700257670D
:1003D000F820202020202002576788888888888875
:1003E0007002576788888850505020025767888865
:1003F00088A8A8D888025767888850205088880223
:10040000576788885020202020025767F80810205E
:100410004080F8123767E08080808080E002576774
:1004200080804020100808123767E020202020201C
:10043000E0065363205088015161F8282262804011
:1004400002556570087888780257678080B0C88840
:10045000C8B00255657088808870025767080868C0
:10046000988898680255657088F8807002576730E0
:100470004840F04040400057677888887808887086
:100480000257678080B0C88888881237674000C0EC
:10049000404040E01049691000301010109090600A
:1004A00002576780808890E09088123767C040408C
:1004B000404040E0025565D0A8A8A888025565B024
:1004C000C88888880255657088888870005767B02A
:1004D000C888C8B0808000576768988898680808FE
:1004E000025565B0C880808002556570807008F044
:1004F0000257674040F04040483002556588888880
:10050000986802556588885050200255658888A8EB
:10051000A8500255658850205088005767888898F1
:1005200068088870025565F8102040F81247673057
:100530004020C020403022176780808080808080EB
:10054000124767C02040304020C006536348A8903F
:10055000FFFFFFFFFFFFFFFFFFFFFFFFFFFFFFFFAB
:10056000FFFFFFFFFFFFFFFFFFFFFFFFFFFFFFFF9B
:10057000FF0A00602217678000808080808001571A
:10058000672078A0A0A07820025767304840E0405C
:1005900048B0025565887050708801586888885046
:1005A00020F8202020221767808080008080800132
:1005B00058687080E09048380870193161A002577F
:1005C000677088A8C8A888701346667090B05000FD
:1005D000F00265652448904824144262F0101541E9
:1005E00061F00257677088E8C8C88870095161F8DF
:1005F00016336340A0400256662020F82020F815EC
:10060000456560902040F0154565E0106010E028D9
:1006100022624080015666888888C8B08002576789
:1006200078E8E86828282825116180202262408027
:1006300015356540C04040E013466660909060000C
:10064000F0026565904824489001696940C04040C7
:10065000E40C143C0401696940C04040E8140408FB
:100660001C015969C0204020C81828780802576723
:10067000200020204088700258684020708888F848
:1006800088880258681020708888F888880258681E
:100690002050708888F8888802586848B070888828
:1006A000F888880258685000708888F8888802584E
:1006B000682050708888F888880267673C50909C52
:1006C000F0909C005969708880808088702040027A
:1006D000586840F88080F08080F802586810F880F0
:1006E00080F08080F802586820F88080F08080F8E0
:1006F00002586850F88080F08080F8123868804096
:10070000E040404040E01238682040E04040404037
:10071000E012386840A0E040404040E0123868A055
:1007200000E040404040E0025767F04848E8484851
:10073000F0025868285088C8A898888802586840ED
:10074000207088888888700258681020708888888F
:1007500088700258682050708888888870025868AD
:10076000285070888888887002586850007088887F
:1007700088887002556588502050880257677098A5
:1007800098A8C8C8700258684020888888888870EF
:10079000025868102088888888887002586820501D
:1007A00000888888887002586850008888888888FF
:1007B00070025868102088885020202002576780D7
:1007C000F088F0808080025767708890A09088B091
:1007D0000258684020007008788878025868102015
:1007E000007008788878025868205000700878886F
:1007F0007802586828500070087888780257675047
:10080000007008788878025868205020700878882E
:100810007802656578147C907C00576770888088C2
:100820007020400258684020007088F8807002589C
:10083000681020007088F88070025868205000709E
:1008400088F8807002576750007088F880701238FE
:1008500068804000C0404040E0123868408000C0DE
:10086000404040E012386840A000C0404040E012E4
:100870003767A000C0404040E0025767C030708832
:10088000888870025868285000B0C8888888025844
:1008900068402000708888887002586810200070B6
:1008A0008888887002586820500070888888700294
:1008B0005868285000708888887002576750007008
:1008C000888888700355652000F8002002556578F7
:1008D00098A8C8F002586840200088888898680264
:1008E000586810200088888898680258682050004E
:1008F00088888898680257675000888888986800B8
:10090000596910208888986808887000586880F0B5
:10091000888888F080800059695000888898680825
:100920008870FFE0FFD1AFFF32FFD0FFFEFFE0FF96
:10093000D1AEFFD0FFFEFFE0FFD11000FFFEFFD0E1
:10094000FFE0FFC1FFD1AED580A83FD300408D149A
:100950002000A1C8DA1281CFD9F1DB402EA4A6AFC6
:10096000FFD0FFFE00000000240027002A00000046
:100970000000250028002B000000000023002600B6
:100980002900040404040404040402020202020212
:100990000303030303030102040810204080010243
:1009A00004081020010204081020000000080002C2
:1009B00001000003040700000000000000002126E1
:1009C00011241FBECFEFD8E0DEBFCDBF13E0A0E003
:1009D000B1E0E4E2F4E502C005900D92AC39B10754
:1009E000D9F725E0ACE9B3E001C01D92A83FB207FA
:1009F000E1F714E0C0EED4E004C02197FE010E94AC
:100A0000FE29CF3DD107C9F70E94001D0C94102A82
:100A10000C940000089580E090E00895CF92DF925A
:100A2000EF92FF920F931F93CF93DF931F92CDB757
:100A3000DEB769830E9400176981462F50E0FA01F2
:100A4000EE0FFF1FEF55FC4F20813181DC01A20F1B
:100A5000B31FA11584E0B80714F0AFEFB3E0B7FF00
:100A600002C0A0E0B0E080916501813009F057C07C
:100A70008091B903823009F452C060916201709193
:100A80006301660F771F660F771F640F751FFB01E9
:100A9000E950FC4F80818B01095F1E4F9D01BB0F08
:100AA000440B550BFB01ED5CFE4F882391F0D80100
:100AB000CC90C694D12CB2E3CB0ED11C0D2C000CE3
:100AC000EE08FF088081869562E370E0681B71097B
:100AD00011C08081869562E370E06B01C81AD1086D
:100AE0000D2C000CEE08FF08F8016081669570E09F
:100AF0006E5C7F4FCB01770FAA0BBB0BBC01CD0106
:100B00006C197D098E099F090E94EE292FEF33E0B1
:100B100040E050E00E945727822F8C0D0BC024E646
:100B200030E00E94042A2FEF33E040E050E00E94C2
:100B30005727822F0F90DF91CF911F910F91FF9038
:100B4000EF90DF90CF900895CF92DF92EF92FF92D7
:100B50000F931F93CF93DF931F92CDB7DEB76C0136
:100B6000DC01DC961C91DC97DB960C917C01B4E0F7
:100B7000EB0EF11CDC015996ED91FC915A97C701DF
:100B800069830995482F410F2981602FC7010E9471
:100B90001E18F60123AD082E000C990B820F911D33
:100BA00083AF81E090E00F90DF91CF911F910F9183
:100BB000FF90EF90DF90CF900895DB011496ED91B8
:100BC000FC91159720E030E065E00994DB01149674
:100BD000ED91FC91159720E030E062E00994DB0193
:100BE0001496ED91FC91159720E030E063E00994B4
:100BF000CF92DF92EF92FF920F931F93CF93DF93E9
:100C00008C017B016A0180E0F601C49181110BC067
:100C1000CF3F09F44CC04C2FB701C8010E94DD053D
:100C2000811143C049C0CF3F11F44FEFF5CFCE3F04
:100C300009F444C0C03FC8F5C03E38F04C2F4F7097
:100C4000B701C8010E94E60530C0C03D38F04C2F06
:100C50004F70B701C8010E94EF0527C0C03CF8F0F3
:100C6000D7011496ED91FC91159720E030E040E01B
:100C700064E0C8010995C295C07FCE5FD0E0CE0187
:100C80000E946819D7011496ED91FC91159720E008
:100C900030E041E064E0C8010995CE0104C0C7FD21
:100CA00004C08C2F90E00E94681980E001C081E0B0
:100CB000BFEFCB1ADB0AA8CF80E001C081E0DF9153
:100CC000CF911F910F91FF90EF90DF90CF900895FB
:100CD0000F93FC010150040F84A996A9941718F0F2
:100CE000081728F402C0081750F0041740F42150E8
:100CF000260F83A995A9961720F4281720F480E0E1
:100D000007C0281720F481E0261710F0F8CF81E003
:100D10000F910895FC01108E118A108A818D88230D
:100D200011F060E001C061E080810C949416AF92F4
:100D3000BF92CF92DF92EF92FF920F931F93CF93C8
:100D4000DF93EC014A835B836C837D830E831F8377
:100D500028873987CA86DB86EC86FD86BF86AE8605
:100D60000E945A176B017C01E88D8E2F90E087302E
:100D7000910508F073C0FC01EC5CFF4F0C94FE2958
:100D800081E058C0898D882311F060E001C061E0E6
:100D900088810E949416888999890196998B888BFD
:100DA000CC8ADD8AEE8AFF8A82E044C08C899D89E4
:100DB000AE89BF89C81AD90AEA0AFB0A8A819B81CF
:100DC000AC81BD81C816D906EA06FB0608F446C008
:100DD00083E030C0898D882311F061E001C060E0BC
:100DE00088810E949416CC8ADD8AEE8AFF8A84E08C
:100DF00021C08C899D89AE89BF89C81AD90AEA0A9F
:100E0000FB0A8E819F81A885B985C816D906EA0696
:100E1000FB0620F185E00EC0288939898E859F85E3
:100E200028173907D4F0198A188ACC8ADD8AEE8A05
:100E3000FF8A86E0888F12C08C899D89AE89BF8920
:100E4000C81AD90AEA0AFB0A8A859B85AC85BD8542
:100E5000C816D906EA06FB0608F0188EDF91CF9176
:100E60001F910F91FF90EF90DF90CF90BF90AF90C8
:100E70000895CF93DF93EC01862F6883798361E037
:100E80000E94C416898D882311F061E001C060E0E2
:100E90008881DF91CF910C9494168EBD00000DB423
:100EA00007FEFDCF8EB508956F927F928F929F922D
:100EB000AF92BF92CF92DF92EF92FF920F931F9368
:100EC000CF93DF930E94BB0FCAE039E1F32E43E2D8
:100ED000E42EDDE207E354E6D52E6AE5C62E13E0E4
:100EE0007EE1B72EE8E27E2EF2E3AF2EACE39A2E3F
:100EF000BBE28B2E8091B7039091B8038B309105A4
:100F000009F4C0C13CF4009709F43FC0019709F40B
:100F100083C02FC38C30910509F446C284369105F5
:100F200009F027C384E492E00E94AA1110930305FC
:100F3000B092040587E592E00E946E1180914A0507
:100F40000E942111109303057092040580E692E03F
:100F50000E946E1180914B050E9421111093030590
:100F6000A092040589E692E00E946E1180914C05E2
:100F70000E942111109303059092040582E792E0EC
:100F80000E946E1180914D05F2C28091B9038111CA
:100F900004C080EF91E00E94AA118091B9038130D2
:100FA00021F485E092E00E94AA118091B903823079
:100FB00021F485E192E00E94AA112DE040E86DE065
:100FC00080E00E94911A10930305B092040580E21C
:100FD00092E00E946E1167ED73EA80E090E40E9457
:100FE0003C1B85E292E00E946E1160E070E080E8B8
:100FF0009FE30E943C1B10930305809204058BE243
:1010000092E00E946E11109303050093040587E39C
:1010100092E00E946E11ADC28091B903813009F057
:101020004DC02CE040E86CE080E00E94911A1092E4
:101030000305C09304058BE792E00E946E11809136
:101040006201909163010E940E1BA0920305C09360
:10105000040580E892E00E946E116091AD037091EA
:10106000AE038091AF039091B0030E943C1B86E8D1
:1010700092E00E946E1120914C0530E040914D05A8
:1010800050E062E370E080E090E00E945513209110
:101090004B0530E040914A0550E062E370E08AE49D
:1010A00090E00E9455132091510530E04EE050E051
:1010B0006EE070E087E390E00E9455138091B903E1
:1010C000811157C22DE040E86DE00E94911A20E4A2
:1010D00040E460E080E40E94911A10920305C093FE
:1010E000040580916501823028F188E892E00E9431
:1010F0006E1180916501833038F48091B203909134
:10110000B30301960E940E1B84E480930305C093F1
:10111000040580916501823021F482E992E00E9409
:101120006E11809165018330A1F487E992E00E94FD
:101130006E110FC08FE992E00E946E1184E38093DC
:101140000305C093040580916201909163010E94A0
:101150000E1B10930305F092040588EA92E00E94AA
:101160006E116091A9037091AA038091AB039091D5
:10117000AC030E943C1B10930305E092040580E839
:1011800092E00E946E116091AD037091AE03809168
:10119000AF039091B0030E943C1B809165018130A8
:1011A00009F0E7C184E480930305C09304058091AE
:1011B000B403882319F08EEA92E002C085EB92E036
:1011C0000E946E1110930305D09304058CEB92E0FE
:1011D0000E946E1180914E0590E00E940E1B1093AC
:1011E00003050093040585EC92E00E946E11809146
:1011F0004F0590E00E940E1B8091B403882309F4F0
:10120000B8C124E4622E60920305F092040588EAD6
:1012100092E00E946E1160914005709141058091AD
:101220004205909143050E943C1B60920305E092A9
:10123000040580E892E00E946E116091440570916F
:10124000450580914605909147050E943C1B6092A0
:101250000305D093040580914805882319F08EEC8E
:1012600092E002C087ED92E00E946E1184E48093C8
:101270000305009304058BE792E00E946E118091B4
:10128000490575C110920305C093040581EE92E0F3
:101290000E946E1180916201909163010E940E1B69
:1012A00083EF92E00E946E112DE040E86DE080E057
:1012B0000E94911A8091B603813029F4109203059F
:1012C000F092040514C0823029F410920305E092D4
:1012D00004050DC0833029F410920305D093040552
:1012E00006C0843021F4109203050093040585EFB5
:1012F00092E00E946E11C0930305F092040587EFFF
:1013000092E00E946E11E0916201F0916301EE0F94
:10131000FF1FEE0FFF1FE950FC4F808190E00E94FD
:101320000E1BC0930305E092040585E093E00E9444
:101330006E11E0916201F0916301EE0FFF1FEE0F5D
:10134000FF1FE950FC4F818190E00E940E1BC0936B
:101350000305D093040583E193E00E946E11E091B0
:101360006201F0916301EE0FFF1FEE0FFF1FE950C6
:10137000FC4F828190E00E940E1BC09303050093F6
:10138000040581E293E00E946E11E0916201F09108
:101390006301EE0FFF1FEE0FFF1FE950FC4F83812B
:1013A00090E00E940E1BE5C010920305C093040557
:1013B0008FE293E00E946E1180916201909163012F
:1013C0000E940E1B83EF92E00E946E112DE040E818
:1013D0006DE080E00E94911A8091B603853019F487
:1013E000D093030504C0863029F4C0920305F0921F
:1013F000040523C0873019F4D093030504C0883056
:1014000029F4C0920305E092040517C0893019F44D
:10141000D093030504C08A3029F4C0920305D09309
:1014200004050BC08B3019F4D093030504C08C3035
:1014300021F4C09203050093040585EF92E00E9419
:101440006E1110920305F092040581E493E00E946E
:101450006E11E0916201F0916301EE0FFF1FEE0F3C
:10146000FF1FED5CFE4F80810E942111D092030589
:10147000F0920405E0916201F0916301EE0FFF1F0D
:10148000EE0FFF1FE95FFE4F80810E942111109235
:101490000305E09204058BE493E00E946E11E09155
:1014A0006201F0916301EE0FFF1FEE0FFF1FED5C75
:1014B000FE4F81810E942111D0920305E092040524
:1014C000E0916201F0916301EE0FFF1FEE0FFF1F2D
:1014D000E95FFE4F81810E94211110920305D09394
:1014E000040585E593E00E946E11E0916201F091A0
:1014F0006301EE0FFF1FEE0FFF1FED5CFE4F8281B9
:101500000E942111D0920305D0930405E09162015D
:10151000F0916301EE0FFF1FEE0FFF1FE95FFE4F1B
:1015200082810E94211110920305009304058FE52A
:1015300093E00E946E11E0916201F0916301EE0F61
:10154000FF1FEE0FFF1FED5CFE4F83810E942111F4
:10155000D092030500930405E0916201F0916301CC
:10156000EE0FFF1FEE0FFF1FE95FFE4F83810E940A
:1015700021110E9470118111BDCCDF91CF911F917B
:101580000F91FF90EF90DF90CF90BF90AF909F9022
:101590008F907F906F9008950F931F930E945A171A
:1015A00000919D0310919E0320919F033091A00311
:1015B000DC01CB01801B910BA20BB30B843F91404C
:1015C000A105B10508F46FC00E945A1760939D03EE
:1015D00070939E0380939F039093A00385E10E94E4
:1015E0000017BC01990F880B990B0E94C72826EFA2
:1015F00038EA4EEC52E40E9424282CEE31E548E310
:101600005FE30E94B3276093AD037093AE038093B2
:10161000AF039093B0038EE480937C0084EE93E05C
:101620000197F1F780917A00806480937A0080912D
:101630007A0086FDFCCF209178008091790030E01F
:10164000382B032E000C440B550B64EB7BE281E13D
:1016500090E00E945727CA01B9010E94C72820E0E4
:1016600030E04AE754E40E9424286093A903709371
:10167000AA038093AB039093AC032DEC3CEC4CE8B5
:1016800050E46091AD037091AE038091AF039091EF
:10169000B0030E94772987FD04C081E08093B503E1
:1016A00002C01092B5031F910F9108950F931F93DD
:1016B000CF93DF9300914A0510914B05D0914C05D3
:1016C000C0914D0560E08FE00E940E0580934A05B1
:1016D00061E08EE00E940E0580934B0562E081E19F
:1016E0000E940E0580934C0563E080E10E940E0588
:1016F00080934D0590914A0509130AC090914B05BE
:10170000191306C090914C05D91302C0C81721F0D7
:1017100081E08093000102C010920001DF91CF911F
:101720001F910F910895811102C04BEF01C045E058
:101730002091B603622F70E0809162019091630165
:1017400020FD16C09B012650310937FF02C02F5FD4
:101750003F4F35952795FC01EE0FFF1FEE0FFF1F42
:10176000E20FF31FE95FFE4F2081240F208316C094
:101770009B012550310937FF02C02F5F3F4F359540
:101780002795DC01AA0FBB1FAA0FBB1FA20FB31F17
:10179000AD5CBE4F3C91242F230F2C93AB014650E0
:1017A00051099B012550310957FDA90155954795D0
:1017B000FC01EE0FFF1FEE0FFF1FDF01A40FB51F8F
:1017C000A95FBE4F9C91943120F0953618F094E6B5
:1017D00001C094E14E0F5F1FDA01A95FBE4F9C93D9
:1017E000C90137FF02C0CB01049795958795DF01AA
:1017F000A80FB91FAD5CBE4F2C91243120F02536C7
:1018000018F024E601C024E18E0F9F1FFC01ED5C5F
:10181000FE4F2083089580916201909163010197AA
:101820008430910514F083E090E09093B3038093AB
:10183000B2038091B20380933A0510923F0583E092
:1018400080933B0561E00E94C41660E080913B05F7
:101850000C9494160F931F93CF93DF93CDB7DEB7FD
:1018600060970FB6F894DEBF0FBECDBF80915205D2
:101870009091530520915405309155058217930797
:1018800019F061E00E94C4168091540590915505AD
:1018900020915205309153052817390719F061E05E
:1018A0000E94C4161FB7F89480919C03811127C031
:1018B000ECE8F9E08491E0EAF9E09491E82FF0E0B7
:1018C000EE0FFF1FEC59F64FA591B491EC91E9236F
:1018D00021F461E08AE00E94941661E08AE00E94AF
:1018E000C4168CB580618CBD8CB580648CBD61E004
:1018F0008DE00E94C41661E08BE00E94C4168091C6
:101900009C038F5F80939C031FBF80E00E9467123F
:1019100081E00E94D01165E070E080E090E00E94DC
:1019200020176CE080E00E941A126FE584E00E94AC
:101930001A1282E090E00E94CD12882319F081E013
:101940008093580586E00E94031280E090E00E9498
:10195000CD120E94ED1180E50E944D0783E70E94A1
:101960004D070E94EA1160E08DE10E941A1260E0CA
:101970008CE10E941A1210925A0560E787E00E94DB
:101980001A126CE485E00E941A1282EE0E94F01195
:1019900081EE0E94F0110E94771280E00E940312F3
:1019A000682F6E7F80E00E941A12E091B103F0E090
:1019B000EC53FE4F60816E3708F06DE785E00E94C2
:1019C0001A120E94771286E00E940312887F682F05
:1019D000616086E00E941A1282E090E00E94CD12BF
:1019E000E0916201F091630123E0EE0FFF1F2A9561
:1019F000E1F7E459FE4F1081173068F481E00E944E
:101A0000031261E070E001C0660F1A95EAF7682BD7
:101A100081E00E941A128DE10E940312682F666015
:101A20008DE10E941A128CE10E940312682F6360FC
:101A30008CE10E941A1211E010935A058DE10E9468
:101A40000312682F64608DE10E941A128CE10E94DB
:101A50000312682F6F638CE10E941A1210935A05CB
:101A600065E584E00E941A1282E380934A05809320
:101A70004B0580934C0580934D058091B9038111EE
:101A800032C0E0916201F091630193E0EE0FFF1F1D
:101A90009A95E1F7E459FE4F8081898781818A8791
:101AA00082818B8783818C8784818D8785818E87D6
:101AB00086818F878781888B40916005BE01675F33
:101AC0007F4F8AE00E94371240916005BE01675F38
:101AD0007F4F80E10E9437126091590581E10E9499
:101AE0001A120E9488128091B903813009F073C0E4
:101AF000E0916201F091630183E0EE0FFF1F8A9590
:101B0000E1F7E459FE4F8081898381818A83828154
:101B10008B8383818C8384818D8385818E83868171
:101B20008F8387818887EDECF1E084914091600597
:101B3000BE016F5F7F4F0E943712E7ECF1E08491A6
:101B4000609159050E941A1282E00E940312E3ED8F
:101B5000F1E0E49101E010E0980101C0220FEA9564
:101B6000EAF7682F622B82E00E941A120E94771215
:101B700080E00E940312682F616080E00E941A12C8
:101B800060E787E00E941A1281E00E94671280914C
:101B90005B05882341F0409160056BE575E08AE0C4
:101BA0000E94371210C082E00E940312E2EDF1E0C1
:101BB000E49101C0000FEA95EAF70095602F6823D1
:101BC00082E00E941A128DE10E94031281FF03C07D
:101BD00081EE0E94F01160960FB6F894DEBF0FBE42
:101BE000CDBFDF91CF911F910F910895AF92BF921A
:101BF000CF92DF92EF92FF920F931F93CF93DF93D9
:101C0000CDB7DEB76C970FB6F894DEBF0FBECDBF71
:101C10008E010F5F1F4FD80120E030E0813021F4AA
:101C2000F901E655FE4F41C0823021F4F901E25737
:101C3000FE4F3BC0833021F4F901EE58FE4F35C012
:101C4000843021F4F901EA5AFE4F2FC0853021F487
:101C5000F901E65CFE4F29C0863021F4F901E25E0D
:101C6000FE4F23C0873021F4F901EE5FFE4F1DC007
:101C7000883021F4F901EA51FF4F17C0893021F46F
:101C8000F901E653FF4F11C08A3021F4F901E25502
:101C9000FF4F0BC08B3021F4F901EE56FF4F05C00A
:101CA0008C3029F4F901EA58FF4FE491EC932F5F4F
:101CB0003F4F11962C31310509F0B0CF5E012DE177
:101CC000A20EB11CF801C080FAE0CF9E6001112481
:101CD0000D2C000CEE08FF081C141D041E041F042C
:101CE00074F461E083E00E94941660E083E00E9457
:101CF00094162AE1C21AD108E108F108EDCFF801E3
:101D00008181FAE08F9FC00111240E9417170E5F96
:101D10001F4F0A151B05B1F66EE170E080E090E000
:101D20006C960FB6F894DEBF0FBECDBFDF91CF919A
:101D30001F910F91FF90EF90DF90CF90BF90AF90E9
:101D40000C942017DF92EF92FF920F931F93CF9383
:101D5000DF93082FD62FC42F142FF62EF40EEE2467
:101D6000E394DD24DA948F2D811B1830A8F0609164
:101D7000CE047091CF040093E8048093E904E092CC
:101D8000EB04D092EA0428EE34E04BE38CEC94E0D0
:101D90000E94B0171850E7CF8C2F887FD80F4C2F98
:101DA000477029F197E049276091CE047091CF04E4
:101DB0000093E804D093E90481E08093EB044F5F43
:101DC00047708FEF90E001C0880F4A95EAF7809343
:101DD000EA0428EE34E04BE38CEC94E0DF91CF9101
:101DE0001F910F91FF90EF90DF900C94B017DF914F
:101DF000CF911F910F91FF90EF90DF900895EF9298
:101E0000FF920F931F93CF93DF93D82F062FC42FEA
:101E1000142FF82EF40EEE24EA948F2D811B183027
:101E2000A8F06091CE047091CF048093E8040093F1
:101E3000E9041092EB04E092EA0428EE34E04BE36C
:101E40008CEC94E00E94B0171850E7CF8C2F887F5D
:101E5000D80F4C2F477019F197E049276091CE04B5
:101E60007091CF04D093E8040093E9041092EB043E
:101E70004F5F47708FEF90E001C0880F4A95EAF7F7
:101E80008093EA0428EE34E04BE38CEC94E0DF919D
:101E9000CF911F910F91FF90EF900C94B017DF91AD
:101EA000CF911F910F91FF90EF900895CF93CCE0C9
:101EB00044E56C2F86E10E94FF0ECF5FC933C1F766
:101EC000CF910895CF92DF92EF92FF920F931F93DD
:101ED000CF93DF93EC0187EFE82E83E0F82E6E01BD
:101EE0008CE2C80ED11C00E010E0CE010E94412718
:101EF000F70161917F01861729F0CE010E944927E1
:101F00000F5F1F4F2196CC15DD0579F7C801DF91D2
:101F1000CF911F910F91FF90EF90DF90CF90089598
:101F2000CF92DF92EF92FF920F931F93CF93DF93A5
:101F3000EC017B016C018CE2C80ED11C00E010E0CA
:101F4000CE010E944127F70161917F01861729F098
:101F5000CE010E9449270F5F1F4F2196CC15DD054A
:101F600079F7C801DF91CF911F910F91FF90EF900A
:101F7000DF90CF900895CF93DF9380910505811175
:101F800007C081E0809305058CEC94E00E94B417B3
:101F9000C091CE04D091CF04E091FD04F091FE04F5
:101FA00082E00995E091FD04F091FE0481E009953D
:101FB00020E030E044E1BE018CEC94E00E94B017D8
:101FC0002FEF34E047E1BE018CEC94E00E94B017A3
:101FD000E091FD04F091FE0480E0DF91CF9109943F
:101FE000962FE8ECF4E06681778180A391A328EE38
:101FF00034E042E38CEC94E00C94B017BF92CF92A3
:10200000DF92EF92FF920F931F93CF93DF93D82F1E
:10201000162FC42F022FB22EB61AD42ED80E6B2D27
:102020008D2D0E94F00FC02ECD1AE12EEC0E6C2DDE
:102030008E2D0E94F00FFC2EFD1A6B2D8F2D0E940D
:10204000F00FC11B6C2D8C2F0E94F00F100F612F11
:102050008D2D0E94F00FD00F6D2F8E2D0E94F00F4E
:10206000612F8F2D0E94F00F6D2F8C2FDF91CF915C
:102070001F910F91FF90EF90DF90CF90BF900C9445
:10208000F00FCF93DF93C82FD62F262F482F61E074
:1020900080E00E94FE0F2D2F4C2F60E081E0DF9149
:1020A000CF910C94FE0F0F931F93CF93DF93C82F04
:1020B000D62F142F042F21E0462F682F8CEC94E0AC
:1020C0000E946806882349F0412F6D2F8C2FDF91E5
:1020D000CF911F910F910C94A20EDF91CF911F9180
:1020E0000F910895EF92FF920F931F93CF93DF9379
:1020F000082FC62FD42F122FEE24E394E60E622F62
:102100006C1B4E2D8D2F800F0E945310FF24F394D3
:10211000F00E612F601B4F2D8C2F8D0F0E945310DE
:102120004E2D612F8D2F801B0E9453104F2D612F3C
:102130008D2F8C1BDF91CF911F910F91FF90EF900E
:102140000C945310EF92FF920F931F93CF93DF9352
:10215000F82EE62E262F482F65E080E00E947210B0
:10216000C0E015E006EFDCEFCF5F9C2F990F9F5F7B
:10217000D90F2E2D4F2D612F8C2F0E947210C11759
:1021800030F4D7FDF1CF11500E5FD00FEDCFDF91BE
:10219000CF911F910F91FF90EF900895009769F0F4
:1021A000FC0101900020E9F73197AF01481B590B62
:1021B000BC0188EC94E00C94B21380E090E00895A8
:1021C0008F929F92AF92BF920F931F93CF93DF9303
:1021D000CDB7DEB7A1970FB6F894DEBF0FBECDBF67
:1021E00019A2423008F44AE08E010F5D1F4F842E81
:1021F000912CA12CB12CA50194010E948127E62FDE
:10220000B901CA0101501109EA3014F4E05D01C0BE
:10221000E95CD801EC93232B242B252B61F7C80113
:102220000E94CE10A1960FB6F894DEBF0FBECDBFB0
:10223000DF91CF911F910F91BF90AF909F908F90A2
:102240000895682F70E080E090E04AE00C94E01080
:102250000F930DE224E54CE066E18CEC94E00E94E3
:102260006806882319F00F910C94560F0F9108956A
:10227000FF920F931F93CF93DF93182FC62FF42E47
:10228000D22F022F242F462F682F8CEC94E00E942F
:1022900068068823E9F04F2D6C2F812F0E94FF0ED6
:1022A0004D2F6C2F812F0E94A20E8FEF8F0D4D2F7F
:1022B0006C2F810F0E94A20ED1506D2F6C0F4F2DED
:1022C000812FDF91CF911F910F91FF900C94FF0E02
:1022D000DF91CF911F910F91FF9008950C94CE1034
:1022E0000F931F93CF93E091DA04F091DB043097C2
:1022F00019F08CEC94E009950091CE041091CF0474
:10230000E091FD04F091FE0482E00995E091FD0466
:10231000F091FE0481E0099520E030E045E1B8014C
:102320008CEC94E00E94B017C82F882341F02FEF67
:1023300034E047E1B8018CEC94E00E94B017E091E2
:10234000FD04F091FE0480E009958C2FCF911F9140
:102350000F910895FF920F931F93CF93DF938C01FA
:10236000E091E104F091E2048CEC94E009959AE0AC
:10237000F92EF80EE80110E003E02991222349F03C
:102380004F2D602F8CEC94E00E941E18080F180F40
:10239000F4CF812FDF91CF911F910F91FF9008957E
:1023A000CF93DF939CB59F7D9CBD9CB5937F9CBDD7
:1023B0009CB59C7F9CBD9DB591609DBDC2E5D5E05F
:1023C000682F8A810E9494168C899D89DF91CF9114
:1023D0000C94171781E00C94D01180E00C94D0116C
:1023E000CF93DF931F92CDB7DEB789830E94ED11A3
:1023F00089810E944D0789830E94EA1189810F908B
:10240000DF91CF910895CF93DF931F92CDB7DEB7C1
:1024100089830E94ED1189818F710E944D078FEF92
:102420000E944D0789830E94EA1189810F90DF91F4
:10243000CF9108951F93CF93DF9300D0CDB7DEB730
:102440006A8389830E94ED1189818F7180620E9465
:102450004D07182F6A81862F0E944D070E94EA11AE
:10246000812F0F900F90DF91CF911F910895EF92E0
:10247000FF920F931F93CF93DF9300D01F92CDB79E
:10248000DEB7162F4A837B8389830E94ED118981F1
:102490008F7180620E944D07082FE12E7B81F72EFD
:1024A0004A81140F1E1531F0F70181917F010E94BE
:1024B0004D07F8CF0E94EA11802F0F900F900F90D8
:1024C000DF91CF911F910F91FF90EF900895209190
:1024D00052053091530540915405509155052417EC
:1024E000350721F0682F822F0C949416089580E010
:1024F0000E94031281FD0BC0682F626080E00E9481
:102500001A1265E070E080E090E00C9420170895C6
:102510000F931F93CF93DF93C0915905DC2FC930E0
:1025200008F0D8E080915A05811102C0CD1B01C08E
:10253000C0E00E94ED1180EA0E944D070AE415E018
:10254000D15030F0F80181918F010E944D07F8CFF2
:10255000CC2329F080E00E944D07C150F9CF0E94A2
:10256000EA1181E00E9467128FEF0E94F0118073E0
:10257000D9F380E00E94671260E787E00E941A1298
:1025800084FF05C081EE0E94F01180E001C081E06F
:10259000DF91CF911F910F9108950F931F93CF93C8
:1025A0008C0186E00E940312C82FC77D02301105FE
:1025B00031F4C0628BE990E0A0E0B0E00DC00130E2
:1025C000110529F085E590E0A0E0B0E005C0C86005
:1025D00081E490E0A0E0B0E0809362059093630511
:1025E000A0936405B09365056C2F86E00E941A12D3
:1025F00086E00E94031291E08C1390E0892FCF9126
:102600001F910F910895CF93C6E061E080913B0543
:102610000E94941660E080913B050E949416C15080
:10262000A1F7CF910895CF92DF92EF92FF920F938F
:102630001F93CF93DF931F92CDB7DEB7F82E209173
:102640005905C62E261708F4C22E80915A0581110D
:1026500003C0D22EDC1801C0D12C99830E94ED1149
:1026600081E60E944D07E82E0F2D9981192FFC0C51
:10267000F01639F08FEF0E944D07F80181938F011A
:10268000F7CFDD2029F08FEF0E944D07DA94F9CFC4
:102690000E94EA118E2D0F90DF91CF911F910F9123
:1026A000FF90EF90DF90CF900895EF92FF920F93FD
:1026B0001F93CF93DF9300D01F92CDB7DEB7E82EE4
:1026C000162F042FF22E22E3462F6EE03B835A830F
:1026D00079830E943811AF2D3B81B32F5A817981C4
:1026E000B7FD1196B595A795FA2EF194E02FF52F29
:1026F000F7FD3196F595E795EE0D212F372F37FF32
:1027000002C02F5F3F4F359527952E0F812F972FB2
:1027100097FD019695958795122F181B6AEF610F0B
:102720000CE02CE04AE34F0D8CEC94E00E9468062C
:10273000882371F060E46F0D812F0F900F900F9040
:10274000DF91CF911F910F91FF90EF900C94A21009
:102750000F900F900F90DF91CF911F910F91FF90ED
:10276000EF900895CF92DF92EF92FF920F931F9315
:10277000CF93DF936C017A018B01C0E0D0E0CE15DE
:10278000DF0589F0D8016D918D01D601ED91FC91A5
:102790000190F081E02DC6010995892B11F47E018D
:1027A00002C02196ECCFC701DF91CF911F910F910D
:1027B000FF90EF90DF90CF900895833081F028F460
:1027C000813099F08230A1F008958730A9F08830E7
:1027D000B9F08430D1F4809180008F7D03C0809166
:1027E00080008F7780938000089584B58F7702C032
:1027F00084B58F7D84BD08958091B0008F7703C02C
:102800008091B0008F7D8093B00008953FB7F89419
:102810008091F3059091F405A091F505B091F6052E
:1028200026B5A89B05C02F3F19F00196A11DB11D2B
:102830003FBFBA2FA92F982F8827820F911DA11D66
:10284000B11DBC01CD0143E0660F771F881F991FA2
:102850004A95D1F708950895DC011696ED91FC9103
:10286000179712968C91481B477081E090E001C049
:10287000880F4A95EAF7E60FF11D3081222311F007
:10288000832B02C08095832380830895FB014181BF
:10289000DC0112962C911297421768F013962C9136
:1028A0001397241740F0608115962C91621718F445
:1028B00024810C942C140895FC0180819281980F3E
:1028C00092832181921760F494819F5F9483938116
:1028D000890F821710F08FEF820F838381E00895B4
:1028E00080E00895FC0112828081815083831482EC
:1028F0000895FC01808D8F5F089580E008950B9608
:10290000FC01849108950A96FC0184910895FC01CC
:10291000849108950E948714882321F0823011F059
:1029200083E0089586E00895FC01E60FF11D84918F
:1029300090E0982F88273196E4918E0F911D08958D
:1029400068E00C94941466E00C9494141092ED05D5
:102950001092EC0508958093F7051092B90084FF5A
:1029600002C082E001C080E28093B8000C94A614FB
:102970000E940B2A83E294E00E947B1A21E0892BBB
:1029800009F420E0822F08958F929F92AF92BF9218
:10299000CF92DF92FF920F931F93CF93DF9300D0DC
:1029A000CDB7DEB76C018B01F42E490120E142174F
:1029B00009F467C0241700F13AE0431729F18FE0CA
:1029C000481369C041E0C6010E94EF0540E0B8012C
:1029D000C6010E94E60541E8B801C6010E94DD0576
:1029E000F4014081B801C6010E94DD0540E0B80154
:1029F000C6010E94EF0508C1A1E14A1709F444C0CD
:102A0000B5E14B1791F047C0DB011496ED91FC91B5
:102A1000159720E030E042E061E009954EE359E08F
:102A2000B801C6010E94F80536C0FB01A280B38040
:102A300046E359E00E94F805D50114964C91406B8D
:102A4000B801C6010E94DD0541E0B801C6010E943F
:102A5000E605F50126813781D8011496ED91FC91A8
:102A60001597D50115964C9166E0C601099581111F
:102A700002C080E0CAC040E0B801C6010E94EF0574
:102A80000AC04DE259E002C042E259E0B801C60175
:102A90000E94F805B9C0D80112960D911C911397A8
:102AA000B2E3FB1609F474C0BF15B8F0E5E1FE16F9
:102AB00009F47BC0F7E1FF1609F48DC024E1F2129E
:102AC000A3C0D8011696ED91FC91179715968C919D
:102AD0009F01280F311DC90160C036E4F31609F4C7
:102AE0008AC087E4F81609F48AC0ABE3FA128CC0F6
:102AF000F40181819381913029F0933031F4482F92
:102B0000885004C048E0480F01C0482F21E0D80198
:102B100013963C91381708F420E031E0F801528117
:102B2000451708F430E051E0481708F050E0822FD4
:102B3000852B382319F4252309F466C0D401129695
:102B4000FC90913051F030F0923049F0933051F4D4
:102B50002FEF09C020E031E007C021E004C020E0F1
:102B60003FEF02C020E030E0F7FE08C0B401C8012A
:102B70002A8339830E94461439812A81F401808195
:102B8000830F80838181820F8183FF0C69F73CC0B2
:102B9000B401C8010E94461437C01192E817F90722
:102BA000E1F7C8010E9472142FC0C8010E945C1492
:102BB000882309F45ECFD8011696ED91FC91179702
:102BC00015968C919F01280F311DC9011192E817AC
:102BD000F907E1F719C0D4011C92F801828111961E
:102BE0008C9311978581815012968C9312978381D3
:102BF00013968C9309C0D80115968C9103C0D80107
:102C000011968C91F401808381E00F900F90DF91F9
:102C1000CF911F910F91FF90DF90CF90BF90AF9019
:102C20009F908F9008951F920F920FB60F921124CC
:102C30002F933F934F935F936F937F938F939F93C4
:102C4000AF93BF93EF93FF9383E294E00E94761CCF
:102C5000FF91EF91BF91AF919F918F917F916F9174
:102C60005F914F913F912F910F900FBE0F901F904A
:102C700018951F920F920FB60F9211242F938F93D6
:102C80009F93EF93FF93E0913304F091340480819C
:102C9000E0913904F0913A0482FD12C09081809154
:102CA0003C048F5F8F7320913D04821751F0E091B7
:102CB0003C04F0E0ED5DFB4F958F80933C0401C038
:102CC0008081FF91EF919F918F912F910F900FBE77
:102CD0000F901F901895CF93DF93282F30E0F901C4
:102CE000E655F64F8491F901EA56F64FD491F90171
:102CF000EE57F64FC491CC2391F081110E94DD1361
:102D0000EC2FF0E0EE0FFF1FE858F64FA591B491BD
:102D1000EC91ED2381E090E021F480E002C080E0BE
:102D200090E0DF91CF9108951F93CF93DF93282FE9
:102D300030E0F901E655F64F8491F901EA56F64F75
:102D4000D491F901EE57F64FC491CC23C9F0162F58
:102D500081110E94DD13EC2FF0E0EE0FFF1FE2590E
:102D6000F64FA591B4918FB7F894111105C09C91BD
:102D7000ED2FE095E92302C0EC91ED2BEC938FBF92
:102D8000DF91CF911F910895CF93DF9390E0FC01E5
:102D9000EA56F64F2491FC01EE57F64F84918823B2
:102DA00061F190E0880F991FFC01EC59F64FC59135
:102DB000D491FC01E259F64FA591B491611109C07B
:102DC0009FB7F8948881209582238883EC912E23E5
:102DD0000BC0623061F49FB7F8943881822F8095E0
:102DE00083238883EC912E2B2C939FBF06C08FB733
:102DF000F894E8812E2B28838FBFDF91CF9108951F
:102E00008E3008F08E508770806480937C008091B3
:102E10007A00806480937A0080917A0086FDFCCFEE
:102E2000809178002091790090E0922B0895833072
:102E3000910528F0880F991F04970197F1F70895DD
:102E40008F929F92AF92BF92CF92DF92EF92FF92BA
:102E50006B017C010E9406144B015C01C114D1047A
:102E6000E104F104F1F00E940614DC01CB018819A1
:102E70009909AA09BB09883E9340A105B10570F3E1
:102E800021E0C21AD108E108F10888EE880E83E03B
:102E9000981EA11CB11CC114D104E104F10419F75E
:102EA000DDCFFF90EF90DF90CF90BF90AF909F90DD
:102EB0008F9008952FB7F8946091EF057091F00509
:102EC0008091F1059091F2052FBF08951F920F9206
:102ED0000FB60F9211242F933F938F939F93AF932D
:102EE000BF938091EF059091F005A091F105B0910D
:102EF000F2053091EE0526E0230F2D3720F40296DF
:102F0000A11DB11D05C029E8230F0396A11DB11D08
:102F10002093EE058093EF059093F005A093F105C3
:102F2000B093F2058091F3059091F405A091F50519
:102F3000B091F6050196A11DB11D8093F305909304
:102F4000F405A093F505B093F605BF91AF919F915D
:102F50008F913F912F910F900FBE0F901F9018955A
:102F6000DB01ED91FC910994EF92FF920F931F9377
:102F7000CF93DF931F92CDB7DEB78C01DC011296A1
:102F8000ED90FC901397D196ED91FC91D29782E051
:102F9000099520E030E04AE0B701C8010E94B0176F
:102FA000F82ED801D196ED91FC91D29783E0099546
:102FB000D801D196ED91FC91D29780E00995FF2040
:102FC000A1F1F801628173819E012F5F3F4F46E4BA
:102FD000C8010E94B0178981D8018C9312966D9117
:102FE0007C9113979E012F5F3F4F47E4C8010E94D9
:102FF000B0178981F80181836281738120E030E01C
:1030000048E4C8010E94B017D8011B968C931B9707
:1030100098012D5C3F4F12966D917C91139747E17B
:10302000C8010E94B01781E001C080E00F90DF91DD
:10303000CF911F910F91FF90EF9008952F923F92A3
:103040005F926F927F928F929F92AF92BF92CF9238
:10305000DF92EF92FF920F931F93CF93DF931F9214
:10306000CDB7DEB71C01C62E142FD22EDC0114966C
:10307000ED90FC901597C7010E948714082FF1016D
:10308000848195810E948A14982E013019F48FE072
:10309000A82E02C0AA24AA94D10114968D919C91C5
:1030A00015970E948314082FF101848195810E9455
:1030B0007F14B82ED10114968D919C9115970E9482
:1030C000A014B0E6BD1530F4009721F0E80EF91E0B
:1030D00001E611C0F101848195810E94A314F0E4FE
:1030E000FD1530F4009721F0E80EF91E01E403C04D
:1030F00021E1E20EF11CBD1480F4D10150961C9226
:10310000509753961C92539754961C9254975196ED
:103110001C92519752961C92C7C0B01670F3892D1D
:1031200090E0F70124912F3F21F4FFEFEF1AFF0AFF
:103130005AC00D114FC0D10114968D919C911597D5
:103140000E94871497012F5F3F4FF701882311F0EA
:103150008230E1F48491D10153968C935397F90115
:10316000249154962C935497F7013396E4915096FA
:10317000EC935097F7013496E4915196EC93519764
:10318000F7013596E4915296EC9320C08491982FE4
:103190009F709250D10152969C93529782958F7056
:1031A00051968C935197F9012491822F8F705496E8
:1031B0008C93549722952F7053962C935397F70125
:1031C0003296E491E295EF705096EC93E114F1049D
:1031D00079F46AC0F7013296E491EA219C012E0F3E
:1031E000311DE20EF31E0B1509F487CF0F5F99CF47
:1031F000F101848195810E948A14B82ED1015396E1
:103200009C9053975496DC90549751968C9151977B
:10321000C80E52969C919D0D512E591A0D2D292D97
:10322000452D6C2DC1010E9468068823D1F1C7018C
:103230008B0D911D5C0187E0890DF82EF694F694B4
:10324000F694D50C41019CE1890E911C6F2C712CD8
:103250005D1439F15C2D8501802F8A198F15E8F4F2
:10326000F8018491D10112966D917C9113975C962F
:103270005C935C975D965C925D975F961C925F97FE
:103280005E968C9394014BE3C10159830E94B01761
:103290000F5F1F4F5981585FDFCFA60CB71C5394A7
:1032A000D7CFF101808901C080E00F90DF91CF91ED
:1032B0001F910F91FF90EF90DF90CF90BF90AF9054
:1032C0009F908F907F906F905F903F902F90089588
:1032D0002EEC37E0009729F0F9013197F1F70197CB
:1032E000F9CF08959091ED05911104C08093ED05FB
:1032F0006093EC0508951F93CF93DF9300D0CDB773
:10330000DEB720ED37E03A8329839091BC00982303
:1033100099F429813A81232B51F48091F705182FD4
:10332000127081FD09C081E00E94721906C02981D6
:103330003A8121503109E7CF11E0812F0F900F9092
:10334000DF91CF911F91089584E98093BC0064E0E0
:1033500080E10C947B19CF938093BB0084E8809329
:10336000BC0063E080E80E947B19C82F882389F0A5
:103370008091F705C82FC27081FD0AC08091B90005
:10338000887F883229F063E082E00E94721901C0D0
:10339000C1E08C2FCF910895CF93DF93FC0123A53B
:1033A000222379F0EC010E943F1C811102C080E0D1
:1033B00009C08EA1811180E40E94AB198823B9F362
:1033C0001BA681E0DF91CF9108950F931F93CF93B8
:1033D000C42F89016330C1F050F4613081F0623054
:1033E00009F048C0FC0146A321E023A743C0663092
:1033F00011F1673079F1653009F03CC00EC0FC0175
:1034000086A50E94AB1436C0FC0116A221E023A7BA
:10341000411130C00E94A4192DC00E94CC19811105
:1034200004C00E94A41980E026C08C2F0E94AB1912
:10343000811120C0F6CF0E94CC19882391F3CC23B0
:10344000C9F0F80181918F010E94AB19882349F3DB
:10345000C150F5CF0E94CC19882319F3CC2351F029
:10346000F80184910E94AB19882329F00F5F1F4F48
:10347000C150F4CF81E0CF911F910F910895E09159
:10348000C804F091C9040190F081E02D682F88EC08
:1034900094E00994FC01538D448D252F30E0842F56
:1034A00090E0821B930B541710F0CF96089501976C
:1034B0000895FC01918D828D981761F0828DDF0156
:1034C000A80FB11D5D968C91928D9F5F9F73928F17
:1034D00090E008958FEF9FEF0895FC01918D828D0C
:1034E000981731F0828DE80FF11D858D90E00895D9
:1034F0008FEF9FEF0895FC01918D228D892F90E031
:10350000805C9F4F821B91098F739927089580E0FB
:1035100090E0892B29F00E94BA1481110C940000CC
:103520000895CF92DF92EF92FF920F931F93CF9364
:10353000DF9300D0CDB7DEB7C82E062F481718F49A
:10354000182F141B02C0142F181B201758F4F02E2C
:10355000F21A1F15C0F4802F042F482F8C2DC22E75
:10356000282F0AC0F22EF01A1F15D0F5842F422FF3
:10357000282F8C2DC02E082FDD24D394EF2CE69419
:10358000021768F039C04C15C8F5E12EE694812F7A
:103590001F2DF82E842F4C2DC82E022FD12C91E0F8
:1035A0004F3F91F44EEF10C0D11011C0602F8C2D01
:1035B0004A8399830E94F00F4A819981E11AE7FEBC
:1035C00002C0090FEF0CC3944C1570F71CC06C2D92
:1035D000802F4A8399830E94F00F99814A81EECF10
:1035E0004C1560F4E12EE694812F1F2DF82E842FC8
:1035F0004C2DC82E022FD12C9FEFD2CF8F2DF12E24
:10360000182FD12CBBCF0F900F90DF91CF911F912E
:103610000F91FF90EF90DF90CF900895CF92DF92BF
:10362000EF92FF92CF93DF936C01990FEE08FF08A2
:10363000F7FE17C08DE20E943F1AEC01662777273C
:10364000CB016C197D098E099F094AE00E94E010A8
:103650008C0F9D1FDF91CF91FF90EF90DF90CF9067
:1036600008954AE0C701B601DF91CF91FF90EF9036
:10367000DF90CF900C94E0108F929F92AF92BF9208
:10368000CF92DF92EF92FF92CF93DF936B017C0199
:103690009B01AC010E94E929882319F080E993E09D
:1036A00027C046015701E894B7F82FEF3FEF4FE7E7
:1036B0005FE7C501B4010E94E92981110DC02FEF18
:1036C0003FEF4FE75FE7C501B4010E941F281816BE
:1036D0001CF484E993E00CC02FEF3FEF4FE75FE469
:1036E000C701B6010E947729181674F488E993E09F
:1036F000DF91CF91FF90EF90DF90CF90BF90AF9090
:103700009F908F900C94CE102FEF3FEF4FE75FEC20
:10371000C701B6010E941F2887FDE8CF20E030E0F6
:10372000A901C701B6010E941F2887FF09C08DE2C9
:103730000E943F1AEC01F7FAF094F7F8F09402C0F7
:10374000C0E0D0E02AE037ED43EA5BE3C701B60111
:103750000E94B3274B015C010E9496286B017C01FB
:103760000E94C5289B01AC01C501B4010E94B2278B
:103770004B015C014AE0C701B6010E94E010C80F8E
:10378000D91F8EE20E943F1AC80FD91F20E030E0F7
:1037900040E251E4C501B4010E947C294B015C0167
:1037A0000E9496286B01E12CF12C4AE0C701B6017A
:1037B0000E94E010C80FD91FC701B6010E94C5289A
:1037C0009B01AC01C501B4010E94B22720E030E0AA
:1037D00040E251E40E947C290E94962880E090E01B
:1037E0004AE00E94E0108C0F9D1FDF91CF91FF9067
:1037F000EF90DF90CF90BF90AF909F908F90089503
:103800008091D0049091D104009709F437C02091A1
:10381000E304FC01211107C03596E491E093E40430
:10382000FC013C960FC0213039F43F96E491E093BF
:10383000E404FC01709606C03D96E491E093E40434
:10384000FC013E96E491E093E5048091E404082EA7
:10385000000C990B2091E504821B910927FD93959B
:103860002091E604203441F0829FC001112426E01B
:10387000969587952A95E1F78093E7040895CF936D
:1038800084EA8093BC0061E080E80E947B19882371
:1038900059F08091B900887F883041F0803131F053
:1038A00061E082E00E947219C0E01DC088E7809349
:1038B000BB0084E88093BC0062E080E80E947B1932
:1038C000882391F38091F705C82FC27081FD0AC04B
:1038D0008091B900887F883129F062E082E00E94FF
:1038E000721901C0C1E08C2FCF910895FC01848D25
:1038F000DF01A80FB11DA35ABF4F2C91848D90E01A
:1039000001968F739927848FA689B7892C93A089F4
:10391000B1898C9180648C93938D848D981306C0AB
:103920000288F389E02D80818F7D80830895EF9256
:10393000FF920F931F93CF93DF93EC0181E0888F69
:103940009B8D8C8D981305C0E889F989808185FD50
:1039500024C0F62E0B8D10E00F5F1F4F0F73112741
:10396000E02E8C8DE8120CC00FB607FCFACFE88968
:10397000F989808185FFF5CFCE010E94761CF1CFB9
:103980008B8DFE01E80FF11DE35AFF4FF0820B8F84
:10399000EA89FB898081806207C0EE89FF896083A4
:1039A000E889F98980818064808381E090E0DF91FB
:1039B000CF911F910F91FF90EF900895CF93DF93D8
:1039C000EC01888D8823C9F0EA89FB89808185FD17
:1039D00005C0A889B9898C9186FD0FC00FB607FC78
:1039E000F5CF808185FFF2CFA889B9898C9185FFB9
:1039F000EDCFCE010E94761CE7CFDF91CF910895E5
:103A0000CF93DF9300D000D0CDB7DEB7789484B5E4
:103A1000826084BD84B5816084BD85B5826085BDCA
:103A200085B5816085BD80916E00816080936E0058
:103A3000109281008091810082608093810080914A
:103A400081008160809381008091800081608093FB
:103A500080008091B10084608093B1008091B000BB
:103A600081608093B00080917A00846080937A00B6
:103A700080917A00826080937A0080917A008E7FB4
:103A800080937A0080917A00806880937A00109207
:103A9000C10066E070E080E295E00E94390765E0D1
:103AA00070E086E095E00E94390762E084E00E94C1
:103AB000C41662E082E00E94C41662E081E00E94C7
:103AC000C41662E08AE00E94C41662E080E00E94B0
:103AD000C41662E089E00E94C4166091C40470912B
:103AE000C5044CE250E087EF93E00E9431276091DB
:103AF000C2047091C3044CE250E083E391E00E9461
:103B000031276091C0047091C1044CE250E087E01D
:103B100091E00E9431278091F7038111DAC789E093
:103B20000E946B16892B31F480E00E946B16892B62
:103B300009F4CFC789E00E946B16892B39F080E029
:103B40000E946B16892B11F40C94982589E00E9431
:103B50006B16892B39F480E00E946B16892B11F0CB
:103B60000C949D258FE00E94001700E012E0980160
:103B7000281B390B3093A2032093A1038EE00E94EF
:103B80000017A801481B590B5093A4034093A303AB
:103B900081E10E940017D801A81BB90BB093A603BE
:103BA000A093A50380E10E940017081B190B109336
:103BB000A8030093A7030E94560B0E942A0C0E94A0
:103BC0000B0C81E08093E3040E94001C8091D704D9
:103BD000803331F48FEF8093EC048093ED040BC0BD
:103BE000883221F0823021F081E003C08FEF01C0E4
:103BF00083E08093EC0489E794E19093E20480935E
:103C0000E1048091D0049091D104885D914071F0DD
:103C100088ED91E09093D1048093D0040E94001C21
:103C20008DE794E19093E2048093E1040E94CC0A32
:103C30001092B8031092B7030E94540781E090E0FD
:103C40009093B8038093B7036CED75E080E090E04B
:103C50000E942017E0E4F5E0E65FE983812CB8E0FC
:103C60009B2E1091B903812F8D7F09F0E6C70E942A
:103C7000560B84E10E94001724E630E0DC010E942C
:103C8000042A2FEF33E040E050E00E94572725360A
:103C900008F024E620935105113009F0B9C0809155
:103CA000AD039091AE03A091AF03B091B0038093A8
:103CB000440590934505A0934605B0934705809130
:103CC000A9039091AA03A091AB03B091AC03809398
:103CD000400590934105A0934205B0934305809120
:103CE000B5038093480587E10E94031280FD2EC032
:103CF0008FEF0E94F0118A830E94ED118A8190E07B
:103D0000959587958770886A0E944D0700E415E0B5
:103D1000B981B01731F0D8018D918D010E944D0706
:103D2000F7CF0E94EA1168E08AE495E00E9413133D
:103D300060E787E00E941A120E945A176093BA0344
:103D40007093BB038093BC039093BD030E945A17EA
:103D5000C090BA03D090BB03E090BC03F090BD03C9
:103D6000DC01CB018C199D09AE09BF09853F91404B
:103D7000A105B105C8F08091B1038F5F823018F4BE
:103D80008093B10302C01092B103E091B103F0E05F
:103D9000EC53FE4F1081612F1E3708F06DE785E070
:103DA0000E941A12109349050E945A17DC01CB0198
:103DB0008C199D09AE09BF09893E9340A105B10543
:103DC00060F082E380934A0580934B0580934C0515
:103DD00080934D0581E0809348050E945A17DC01CD
:103DE000CB018C199D09AE09BF09813D9740A10502
:103DF000B10508F4DAC20E942A0C0E945A17609397
:103E0000BA037093BB038093BC039093BD03CDC2F0
:103E10001111CBC280916501813009F0EDC00E9483
:103E200088128823C1F087E10E94031280FD13C02D
:103E30006AE080E495E00E94131360E787E00E9447
:103E40001A120E945A176093C8037093C903809393
:103E5000CA039093CB038091B1038F5F823018F433
:103E60008093B10302C01092B103E091B103F0E07E
:103E7000EC53FE4F60816E3708F06DE785E00E94DD
:103E80001A120E945A170091C8031091C903209179
:103E9000CA033091CB03DC01CB01801B910BA20B39
:103EA000B30B893E9340A105B10568F080E295E02F
:103EB0000E948A061092B4038AE0A0E4B5E01D9245
:103EC0008A95E9F714C0A12CB12CC12CD12C760114
:103ED00004E610E020E030E04EE150E060E070E009
:103EE00080E295E00E94970681E08093B403809180
:103EF000000181118CC08091B4039091C703891790
:103F000021F08093C7030E945407C0904005D090D1
:103F10004105E0904205F09043054090C303509066
:103F2000C4036090C5037090C6032DEC3CEC4CE4D8
:103F30005DE3C701B6010E94B227A30192010E946E
:103F4000772987FF0EC02DEC3CEC4CE45DE3C70104
:103F5000B6010E94B327A30192010E941F281816E0
:103F600054F0C092C303D092C403E092C503F09210
:103F7000C6030E945407C0904405D0904505E090C8
:103F80004605F09047054090BF035090C0036090F5
:103F9000C1037090C2032AE939E949E95EE3C70128
:103FA000B6010E94B227A30192010E94772987FFE0
:103FB0000EC02AE939E949E95EE3C701B6010E946A
:103FC000B327A30192010E941F28181654F0C09233
:103FD000BF03D092C003E092C103F092C2030E94DB
:103FE0005407809148059091BE03891781F0809312
:103FF000BE030E9454070BC080E00E94671280E05D
:104000000E940312682F6D7F80E00E941A12809137
:104010006501823009F027C10E945A172B013C012B
:10402000A12CB12CC12CD12C760100ED17E020E0A1
:1040300030E04EE150E060E070E080E295E00E9408
:10404000970680914C058093D40380914B05809313
:10405000D50302ED13E0E4EDEE2EE3E0FE2E2CECB2
:1040600033E03C832B83FFE0AF2ED8018C9190E0AE
:10407000F70161917F01262F30E0AC0143505109D7
:104080002417350734F103968217930714F18091B2
:10409000CE039091CF03A091D003B091D103A3019F
:1040A0009201281B390B4A0B5B0BDA01C9018835D9
:1040B0009240A105B10568F40F5F1F4F4B815C81F1
:1040C0004F5F5F4F5C834B8353E0043D150769F6F8
:1040D0006CC1D8016C934092CE035092CF03609292
:1040E000D0037092D103663010F489E056C08AEF95
:1040F000860F863010F48AE04BC084EF860F86303E
:1041000010F48BE04AC08EEE860F863010F48CE0FF
:104110003FC088EE860F863010F48DE03EC082EE00
:10412000860F863010F48EE033C08CED860F86301B
:1041300020F4EB81FC81A08233C086ED860F8031B4
:1041400010F488E025C086EC860F863010F481E0FC
:1041500024C080EC860F863010F482E019C08AEB10
:10416000860F863010F483E018C084EB860F86300B
:1041700010F484E00DC08EEA860F863028F425E026
:10418000EB81FC8120830CC06855663028F486E002
:10419000AB81BC818C9304C087E0EB81FC81808380
:1041A0006091CC035091CD0340913A054460409317
:1041B0003C0550933D0560933E05F0E16F9F9001F3
:1041C0001124352B842F90E0982F88279295907F8B
:1041D000822B932B56275A2554271C01252AB12CB4
:1041E000B11006C080913A0523E0281B822F07C03A
:1041F00032E03B1538F480913A05880F885F8823B8
:1042000041F001C085E04DE4849FC00111240E946B
:1042100017170E940313C4010197F1F7C12CD12C89
:104220000E940313C1010C2C02C0880F991F0A942D
:10423000E2F797FD03C087E091E002C088E292E0D8
:104240000E9417175FEFC51AD50A80E1C816D1047E
:1042500039F70E940313C4010197F1F7B39496E074
:10426000B912BECF29CF833009F09FC0A12CB12C49
:10427000C12CD12C760108EE13E020E030E04EE1B5
:1042800050E060E070E080E295E00E949706809147
:104290004A058B3530F081E00E94F60D81E0809375
:1042A000D90380914A058A3030F482E00E94F60DED
:1042B00081E08093D90380914A058B508F3448F474
:1042C0008091D903882329F083E00E94F60D109293
:1042D000D90380914B058B3530F084E00E94F60DB8
:1042E00081E08093D80380914B058A3040F485E0CB
:1042F0000E94F60D81E08093D9038093D8038091CA
:104300004B058B508F3448F48091D803882329F0D3
:1043100086E00E94F60D1092D80380914C058B35F3
:1043200030F087E00E94F60D81E08093D703809102
:104330004C058A3040F488E00E94F60D81E08093BD
:10434000D9038093D70380914C058B508F3448F468
:104350008091D703882329F089E00E94F60D1092FE
:10436000D70380914D058B3530F08AE00E94F60D21
:1043700081E08093D60380914D058A3040F48BE034
:104380000E94F60D81E08093D9038093D60380913B
:104390004D058B508F3448F48091D603882329F043
:1043A0008CE00E94F60D1092D6038091B903813003
:1043B000B1F40E945A170091F3031091F403209175
:1043C000F5033091F603DC01CB01801B910BA20BAE
:1043D000B30B883C9105A105B10508F0B3C38091EA
:1043E000B903823009F0CBC10E945A1789E00E94BC
:1043F0006B16892B41F41092EC031092EB03109290
:10440000EA031092E9030E945A170091E503109104
:10441000E6032091E7033091E803DC01CB01801B28
:10442000910BA20BB30B0797A105B10508F465C06A
:104430008091EC03811161C08091EB0381115DC01B
:104440000E945A176093E5037093E6038093E70395
:104450009093E8039091060150910501852F890FF3
:104460008093E40340910401E0910301FE2FF40FD7
:10447000F093E30329EC280F233118F421E0209373
:10448000E2032091E20321116AC32091E20321118A
:1044900071C36091EA0370E02091E90330E0DB0131
:1044A000A21BB30B1A971CF0A1E0A093EC03261BF0
:1044B000370B2A3031051CF021E02093EB038130CB
:1044C00009F463C38E3709F460C3F13009F465C39E
:1044D000FE3309F462C38091E4032091E3038C303E
:1044E00009F464C38091E403833709F477C38091AE
:1044F000E40380930601209304010E945A1700915F
:10450000DE031091DF032091E0033091E103DC0131
:10451000CB01801B910BA20BB30B0F97A105B1052B
:1045200008F454C08091EC03811150C08091EB03DA
:1045300081114CC00E945A176093DE037093DF0311
:104540008093E0039093E1032091020180910401A4
:1045500090E0422F50E04A5F5F4F481759071CF028
:1045600021502093020120910201422F50E0495F27
:104570005F4F481759071CF42F5F20930201809169
:104580000201811103C081E0809302018091020148
:1045900090E0C2971CF081E38093020120914B05CB
:1045A000822F90E0A0E0B0E09C01AD0124563109DB
:1045B00041095109A1E3B0E00E9476272CE93FEFC1
:1045C0004FEF5FEF0E945727209301010E945A1777
:1045D0000091DA031091DB032091DC033091DD03BD
:1045E000DC01CB01801B910BA20BB30B8634910530
:1045F000A105B10508F46AC20E945A176093DA0354
:104600007093DB038093DC039093DD030E94BB0F68
:10461000B8E27B2E1AE000E5D02ECC24C3948CE1C6
:10462000B82E9FE1A92E26E2622EE090E303F090DF
:10463000E4034EEF4E0D6EEF6F0D04E024E08CECC2
:1046400094E00E946806882321F06E2D8F2D0E9431
:1046500041104EE0609102018CE00E9453104EE048
:104660006091010183E70E94531043E060E080E421
:104670000E94531043E066E080E40E94531043E040
:104680006CE080E40E94531043E062E180E40E9409
:10469000531043E068E180E40E94531043E06EE170
:1046A00080E40E94531043E064E280E40E945310CF
:1046B00043E06AE280E40E94531043E060E380E458
:1046C0000E94531043E066E380E40E94531043E0ED
:1046D0006CE380E40E94531070920305109304056C
:1046E0008091EA030E942111D092030510930405E2
:1046F0008091E9030E9421118091EC03811104C093
:104700008091EB038823F1F01092EC040E942811B1
:10471000C092EC042DE244E56CE086E10E94381181
:1047200084E280930305B092040589E693E00E9439
:104730006E11A092030580E38093040583E793E064
:104740000E946E118091EC03882341F06092030572
:10475000609204058FE793E00E946E118091EB0355
:10476000882341F0709203056092040588E893E085
:104770000E946E110E947011811157CFA7C18091C4
:10478000B503882309F443C09091480580916501E1
:10479000911106C0823020F49091B403911137C07A
:1047A000813029F4A0906201B090630109C0823089
:1047B000D1F4A090B203B090B303AFEFAA1ABA0A33
:1047C000A4EFCA2EDD24D394E12CF12C06E910E0ED
:1047D00020E030E04CE850E060E070E086E095E0FA
:1047E0000E94970618C08330B1F410921E051092F3
:1047F00017051092160580911F05882311F061E0BE
:1048000001C060E0809106050E94941604C086E015
:1048100095E00E948A060E94CC0A0E945A170091D5
:10482000EF031091F0032091F1033091F203DC01CA
:10483000CB01801B910BA20BB30B0A97A105B1050D
:1048400008F444C10E945A176093EF037093F00379
:104850008093F1039093F2038091EE0390E08C013A
:10486000000F111F84E00E946B168170802B8093D3
:10487000EE03873029F480916501813009F4C6C1C7
:104880008091ED0390E08C01000F111F82E00E94E7
:104890006B168170802B8093ED03873029F4809113
:1048A0006501813009F4BAC10091B7031091B803D2
:1048B0008091640190E00B3011050CF044C08C0134
:1048C000000F111F81E00E946B168170802B809376
:1048D00064018730C1F4809165018330A0F4809138
:1048E00062019091630101968B30910514F081E093
:1048F00090E090936301809362010E942A0C0E94D1
:104900000B0C0E9454078091610190E08C01000F14
:10491000111F8AE00E946B168170802B80936101C9
:10492000873009F067C080916501833020F48F5F84
:104930008093650105C081E0809365010E942A0C87
:104940000E94540757C07C01EE0CFF1C81E00E94BE
:104950006B1681708E29809364018730E1F40B30EF
:10496000110589F48091B603E0916201F091630131
:10497000EE0FFF1FEE0FFF1FE950FC4FE80FF11D78
:104980003197108206C00C30110519F480E00E94A6
:10499000930B0E9454078091610190E08C01000FFD
:1049A000111F8AE00E946B168170802B8093610139
:1049B000873001F58091B7039091B8038B30910552
:1049C00091F48091B603E0916201F0916301EE0FE2
:1049D000FF1FEE0FFF1FE950FC4FE80FF11D31974D
:1049E00081E08083ADCF0C9709F0AACF81E00E94CF
:1049F000930BA6CF8091600190E08C01000F111FF6
:104A000080E00E946B168170802B8093600187305C
:104A1000E1F4909165019130C1F42BE030E03093E6
:104A2000B8032093B7038091B6038F5F8093B603DA
:104A3000853048F08D3008F0F9C08CE090E090931C
:104A4000B8038093B7030E9454078091B7039091F5
:104A5000B8030B9764F489E00E946B16892B21F44C
:104A600081E08093500532C0109250052FC0809194
:104A70005F0190E08C01000F111F89E00E946B160E
:104A80008170802B80935F01873001F581E090E099
:104A90009093B8038093B7031092B6030E94540713
:104AA0008091C4049091C5040E94620F63E371E099
:104AB0008091C2049091C3040E94900F67E071E05E
:104AC0008091C0049091C1040E94900F0E94871AA7
:104AD000C8C88CE2E7EFF3E0DF011D928A95E9F7A1
:104AE0004CE250E064E670E083E391E00E942A2704
:104AF0004CE250E064E670E087E091E00E942A27F3
:104B00008091C4049091C5040E94620F63E371E038
:104B10008091C2049091C3040E94900F67E071E0FD
:104B20008091C0049091C1040E94900F0C949A1D32
:104B300081E08093B9030C94A61D82E08093B903B1
:104B40000C94B21D0E945A176093F3037093F40300
:104B50008093F5039093F6030E94540740CC8C3069
:104B600008F093CC2091E9032F5F2093E903109282
:104B7000E2038BCC843708F48CCC2091EA032F5FBE
:104B80002093EA031092E20384CC852F81958093D1
:104B90000501951B9093E40398CC9E2F91959093DB
:104BA0000301842F8E1B8093E30395CC8091020137
:104BB000281708F497CC422F50E090E00E96841707
:104BC00095070CF48FCC90910501892F81958093E6
:104BD0000501891B845F8093E40384CC80910101EB
:104BE000281708F484CC422F50E090E00E968417EA
:104BF00095070CF47CCC90910501892F81958093C9
:104C00000501891B8D588093E40371CC90914E056A
:104C1000892780934E050E94540732CE90914F050C
:104C2000892780934F050E9454073ECE3093B803E6
:104C30002093B7039093B60306CF113009F0B5CB9C
:104C40002EC8109226041092250488EE93E0A0E06E
:104C5000B0E08093270490932804A0932904B09394
:104C60002A048AEC91E0909324048093230485EC39
:104C700090E09093300480932F0484EC90E0909324
:104C800032048093310480EC90E09093340480935C
:104C9000330481EC90E0909336048093350482ECE9
:104CA00090E0909338048093370486EC90E09093E2
:104CB0003A048093390410923C0410923D041092FF
:104CC0003E0410923F0484E690E09093C7048093E2
:104CD000C60487E090E0909353058093520588E0E6
:104CE00090E090935505809354051092580580E20A
:104CF0008093590510925A0585E08093600585E000
:104D000090E0A0E0B0E08093660590936705A093E3
:104D10006805B093690510925B0510924E051092DC
:104D20004F051092500581E080934905109231059E
:104D30001092300510923405109235051092360508
:104D40001092370510923805109239051092170508
:104D50001092160510921A0510921B0510921C0550
:104D600010921D0510921E0510921F051092CB0483
:104D70001092CA042CED31E03093C9042093C8048A
:104D80001092030510920405109205051092D104AB
:104D90001092D0041092D3041092D2041092D50431
:104DA0008093D40482E28093D6041092DB041092A4
:104DB000DA04EFEEF4E09FEF8EE08E0F91938E1306
:104DC000FDCF81E08093EC042DE734E13093E204E1
:104DD0002093E1048093E3041092E4041092E5042C
:104DE00080E48093E6041092E7048BE294E19093D0
:104DF000FE048093FD048EE691E09093CF048093AF
:104E0000CE0480E18093FA048CEC94E00E94B41705
:104E100088EE91E09093C9048093C8048091EA05DC
:104E20009091EB059093C5048093C4049C01245D8C
:104E30003F4F3093C3042093C204285A3F4F30930E
:104E4000EB052093EA05885A9F4F9093C104809305
:104E5000C0040895DC0101C06D9341505040E0F75B
:104E60000895DC01CB01FC01F999FECF06C0F2BD2B
:104E7000E1BDF89A319600B40D9241505040B8F718
:104E80000895F999FECF92BD81BDF89A992780B512
:104E90000895262FF999FECF1FBA92BD81BD20BD7E
:104EA0000FB6F894FA9AF99A0FBE01960895052E56
:104EB00097FB1EF400940E946E2757FD07D00E94B6
:104EC000812707FC03D04EF40C946E275095409533
:104ED000309521953F4F4F4F5F4F089590958095A6
:104EE000709561957F4F8F4F9F4F08950E94A32724
:104EF000A59F900DB49F900DA49F800D911D11242E
:104F00000895A1E21A2EAA1BBB1BFD010DC0AA1F0A
:104F1000BB1FEE1FFF1FA217B307E407F50720F022
:104F2000A21BB30BE40BF50B661F771F881F991F9D
:104F30001A9469F760957095809590959B01AC01E6
:104F4000BD01CF010895A29FB001B39FC001A39FEF
:104F5000700D811D1124911DB29F700D811D1124B2
:104F6000911D08955058BB27AA270E94CA270C9468
:104F70003D290E942F2938F00E94362920F039F46B
:104F80009F3F19F426F40C942C290EF4E095E7FBCE
:104F90000C942629E92F0E944E2958F3BA1762076C
:104FA00073078407950720F079F4A6F50C9470290F
:104FB0000EF4E0950B2EBA2FA02D0B01B901900134
:104FC0000C01CA01A0011124FF27591B99F0593F78
:104FD00050F4503E68F11A16F040A22F232F342FC0
:104FE0004427585FF3CF469537952795A795F0400E
:104FF0005395C9F77EF41F16BA0B620B730B840B23
:10500000BAF09150A1F0FF0FBB1F661F771F881FDA
:10501000C2F70EC0BA0F621F731F841F48F4879532
:1050200077956795B795F7959E3F08F0B0CF939524
:10503000880F08F09927EE0F9795879508950E949D
:10504000022908F481E008950E9438280C943D2933
:105050000E94362958F00E942F2940F029F45F3F22
:1050600029F00C94262951110C9471290C942C29A7
:105070000E944E2968F39923B1F3552391F3951BB0
:10508000550BBB27AA2762177307840738F09F5F69
:105090005F4F220F331F441FAA1FA9F335D00E2ED6
:1050A0003AF0E0E832D091505040E695001CCAF743
:1050B0002BD0FE2F29D0660F771F881FBB1F261706
:1050C00037074807AB07B0E809F0BB0B802DBF01DD
:1050D000FF2793585F4F3AF09E3F510578F00C94AC
:1050E00026290C9471295F3FE4F3983ED4F386950A
:1050F00077956795B795F7959F5FC9F7880F911DCD
:105100009695879597F90895E1E0660F771F881FB8
:10511000BB1F621773078407BA0720F0621B730B6B
:10512000840BBA0BEE1F88F7E09508950E9456296C
:1051300088F09F5798F0B92F9927B751B0F0E1F058
:10514000660F771F881F991F1AF0BA95C9F714C008
:10515000B13091F00E947029B1E008950C9470294B
:10516000672F782F8827B85F39F0B93FCCF3869541
:1051700077956795B395D9F73EF49095809570959E
:1051800061957F4F8F4F9F4F0895E89409C097FB1B
:105190003EF490958095709561957F4F8F4F9F4F0E
:1051A0009923A9F0F92F96E9BB279395F695879552
:1051B00077956795B795F111F8CFFAF4BB0F11F415
:1051C00060FF1BC06F5F7F4F8F4F9F4F16C08823BC
:1051D00011F096E911C0772321F09EE8872F762FF2
:1051E00005C0662371F096E8862F70E060E02AF033
:1051F0009A95660F771F881FDAF7880F969587951F
:1052000097F90895990F0008550FAA0BE0E8FEEFF3
:1052100016161706E807F907C0F012161306E4077A
:10522000F50798F0621B730B840B950B39F40A2673
:1052300061F0232B242B252B21F408950A2609F451
:10524000A140A6958FEF811D811D089597F99F6755
:1052500080E870E060E008959FEF80EC08950024FE
:105260000A941616170618060906089500240A94CB
:1052700012161306140605060895092E0394000C51
:1052800011F4882352F0BB0F40F4BF2B11F460FFE0
:1052900004C06F5F7F4F8F4F9F4F089557FD905809
:1052A000440F551F59F05F3F71F04795880F97FBEA
:1052B000991F61F09F3F79F08795089512161306A4
:1052C0001406551FF2CF4695F1DF08C016161706D3
:1052D0001806991FF1CF8695710561050894089508
:1052E000E894BB2766277727CB0197F908950E949A
:1052F000022908F48FEF08950E948F290C943D290C
:105300000E942F2938F00E94362920F0952311F0B1
:105310000C9426290C942C2911240C9471290E9498
:105320004E2970F3959FC1F3950F50E0551F629F72
:10533000F001729FBB27F00DB11D639FAA27F00DEE
:10534000B11DAA1F649F6627B00DA11D661F829F15
:105350002227B00DA11D621F739FB00DA11D621FFA
:10536000839FA00D611D221F749F3327A00D611D17
:10537000231F849F600D211D822F762F6A2F1124F9
:105380009F5750409AF0F1F088234AF0EE0FFF1F2C
:10539000BB1F661F771F881F91505040A9F79E3F83
:1053A000510580F00C9426290C9471295F3FE4F399
:1053B000983ED4F3869577956795B795F795E795D9
:1053C0009F5FC1F7FE2B880F911D9695879597F9E2
:1053D00008950E940229880B990B0895DB018F9391
:1053E0009F930E947627BF91AF91A29F800D911D40
:1053F000A39F900DB29F900D11240895EE0FFF1FF3
:105400000590F491E02D09940E94A327B7FF089519
:10541000821B930B089581E090E0F8940C94102A7D
:04542000F894FFCF2E
:105424000110100120FF4064646464646464646473
:105434006464646464646464646464646464646428
:105444006464646464646464646464646464646418
:105454006464646464646464646464646464646408
:1054640064646464646464646464646464646464F8
:105474006464646464646464646464646464640745
:105484000707010007010840000000806A05C414F2
:105494006601E519B1F0F0E8E9000000B2F0F0E8C7
:1054A400E9000000B3F0F0E8E9000000B4F0F0E82F
:1054B400E9000000B5F0F0E8E9000000B6F0F0E81B
:1054C400E9000000B7F0F0E8E9000000B8F0F0E807
:1054D400E9000000B9F0F0E8E9000000B0F0F0E8FD
:1054E400E9000000010200000000971CB2134A1AF0
:1054F400DE1C7B1A591A6D1A00000000A405B213B1
:105504000B050A0500000000A405B2130B050A05EB
:105514004D6963726F205243205472616E736D69DA
:1055240074746572004D6963726F20524320546530
:1055340073746572004D6963726F20504F4E47005B
:1055440053573A20002048573A200063726561742B
:1055540065642062793A005468654449594775790D
:10556400393939004A6F79737469636B20726561E4
:1055740064696E67733A004178697320313A200098
:105584004178697320323A20004178697320333AB4
:1055940020004178697320343A200043483A2000BF
:1055A4004261743A2000560054783A20495220202F
:1055B40020004C45474F004D454343414E4F005456
:1055C400783A20322E3447005663633A20005278EA
:1055D4003A204F4B0052783A203F3F004D6F6465AC
:1055E40020313A20004D6F646520323A2000426138
:1055F400742E204F4B20004C6F77204261742E2074
:10560400004368616E6E656C2052657665727365E1
:1056140020280029003E0043482E20312028522013
:105624002D293A200043482E2032202852207C295C
:105634003A200043482E203320284C207C293A204D
:105644000043482E203420284C202D293A200043A2
:1056540068616E6E656C2025202D2026202B202865
:105664000043482E20313A2020200043482E203287
:105674003A2020200043482E20333A2020200043A3
:10568400482E20343A2020200047414D45204F56D3
:105694004552005072657373204241434B210059B7
:1056A4004F55204C4F535400594F5520574F4E00DF
:0C56B4006E616E00696E66006F76660025
:00000001FF
